S01700004763634170706C69636174696F6E312E737265635B
S11300000C942E000C944B000C9466010C944B0041
S11300100C944B000C944B000C944B000C948A01F0
S11300200C944B000C944B000C944B000C944B0020
S11300300C944B000C944B000C944B000C944B0010
S11300400C944B000C944B000C944B000C944B0000
S11300500C944B000C944B000C944B0011241FBEC9
S1130060CFEFD4E0DEBFCDBF11E0A0E0B1E0E8E91E
S1130070F7E002C005900D92A430B107D9F723E050
S1130080A4E0B1E001C01D92A735B207E1F70E94D8
S113009094010C94CA030C940000E4EEF0E0808117
S11300A0806C80838081867F8083E5EEF0E08081B0
S11300B0876B808380818F7B8083E7EEF0E0808193
S11300C08F60808380818F718083E6EEF0E0808191
S11300D08760808380818F788083089580538A30FD
S11300E008F040C066307105E8F560FD3CC090EF53
S11300F029EF30E075956795DB01A451BF4F5C9102
S1130100E82FF0E0EE0FFF1FEE0FFF1FE45FFE4F3E
S11301104081032E01C0440F0A94EAF7852F8223FD
S1130120842B8C9315968C912181032E01C0220F70
S11301300A94EAF78923822B8C9315968C91228159
S1130140032E01C0220F0A94EAF78923822B8C9391
S113015015962C91838101C0880F3A95EAF7922372
S1130160982B9C9308959FE02FE934E0C3CFFC01C2
S113017081E0808395E091839283838314828583D5
S113018086831782808781872EE0228783878487EE
S113019085872BE026878787108A918B228B138A89
S11301A0848B34E0358B268B878B808F318F3FE0B7
S11301B0328F838F848F858F868F178E80A391A330
S11301C032A383A384A395A326A317A208958F9291
S11301D09F92AF92BF92CF92DF92EF92FF92CF9312
S11301E0DF934B015C01EA0184E091E00E94D402B8
S11301F0D0933501C0933401C501B40124E630E045
S113020040E050E00E9448032AE0C22ED12CE12CA9
S1130210F12CA70196010E944803BE0180E3820FDE
S11302200E946E00C0913401D09135012196D09383
S11302303501C0933401C501B401A70196010E94A0
S11302404803862FBE01805D0E946E0084E091E029
S1130250DF91CF91FF90EF90DF90CF90BF90AF9060
S11302609F908F900C940E03EC01812C912C5401DF
S1130270839483E088169104A104B104E4F080FE21
S11302801FC082E0C82ED12CE12CF12C0AC0C5017C
S1130290B401A70196010E944803672B682B692BC0
S11302A079F08FEFC81AD80AE80AF80A8C149D046A
S11302B0AE04BF0461F7AE01C501B4010E94E700BA
S11302C08FEF881A980AA80AB80AD3CF1F920F9200
S11302D00FB60F9211242F933F934F935F936F9315
S11302E07F938F939F93AF93BF93EF93FF930E945A
S11302F0A702FF91EF91BF91AF919F918F917F9151
S11303006F915F914F913F912F910F900FBE0F907E
S11303101F9018951F920F920FB60F9211240F90F1
S11303200FBE0F901F9018950E944D008CE091E035
S11303300E94B70060E070E084E391E00E94C40191
S113034083E090E00E943401CF93DF9300D0CDB7D7
S1130350DEB79A838983809100019091010106960A
S11303600E948903892B29F00F900F90DF91CF9180
S1130370089589819A81909301018093000161E03D
S113038070E006960E94A903CF93DF9300D0CDB707
S1130390DEB7F8942091080130910901232B09F468
S11303A043C020910201309103013A832983232B16
S11303B009F481C0E981FA81448155815093030194
S11303C04093020191838083738362831582148234
S11303D0CF0106960E948903019709F479C0E98147
S11303E0FA81369689819A8187599F4F918B808BA8
S11303F0938B828BE981FA8115821482E0910A0140
S1130400F0910B01309711F457C0FC018481958160
S11304100097D9F789819A819583848378940F9082
S11304200F90DF91CF91089520E132E03093A8013D
S11304302093A7012DE732E0309315022093140294
S11304402AEE32E030938202209381021092EF026E
S11304501092EE02E1E6F0E020E820831082739A25
S113046020E42DBB28E020936B00E1E8F0E020813C
S11304702D602083E4E8F0E0208131811182108234
S113048020EC2093800022E020936F0027E831E0E5
S1130490309389002093880021E030E030930901F3
S11304A02093080120910201309103013A832983AA
S11304B0232B09F07FCFFFCF29813A8130930B01A1
S11304C020930A0178940F900F90DF91CF910895B3
S11304D07894A0910001B0910101ED91FC911197E4
S11304E012968D919C9113970995F894A09100010F
S11304F0B091010115961C921E921497E09102018D
S1130500F0910301309711F417C0FC0184819581A7
S11305100097D9F7B583A48380910A0190910B01C8
S11305200097A1F0FC012481358130930B012093C5
S11305300A010E94A40153CFB0930301A0930201C6
S113054080910A0190910B01009761F7FFCF809190
S1130550000190910101FC0115821482A0910A010D
S1130560B0910B011097A9F0FD0101C0F90124819C
S1130570358121153105D1F79583848314962D9106
S11305803C911597CD0130930B0120930A010C94F3
S1130590A401009709F4FFCF20E030E030930B0171
S11305A020930A010C94A401CF93DF93DC018D9175
S11305B09C911197892B31F1C0910001D0910101D7
S11305C01D821C821296ED91FC911397309711F4C1
S11305D020C0FC01848195810097D9F7D583C48319
S11305E080910A0190910B01009759F0FC0124813C
S11305F0358130930B0120930A01DF91CF910C9444
S1130600A401FFCF81E090E08D939C93DF91CF9183
S113061008951396DC93CE931297E2CFCF93DF9392
S1130620DC0112968D919C911397892B39F1C0911D
S11306300001D09101011D821C82E0910A01F09118
S11306400B01309711F41FC0F90124813581211564
S11306503105D1F7D583C48312968D919C9113975C
S1130660009759F0FC012481358113963C932E9315
S11306701297DF91CF910C94A401FFCF1D921C928D
S1130680DF91CF910895D0930B01C0930A01E4CF79
S1130690052E97FB1EF400940E945F0357FD07D0BC
S11306A00E94670307FC03D04EF40C945F0350953B
S11306B04095309521953F4F4F4F5F4F089590954A
S11306C08095709561957F4F8F4F9F4F0895A1E25C
S11306D01A2EAA1BBB1BFD010DC0AA1FBB1FEE1FB8
S11306E0FF1FA217B307E407F50720F0A21BB30B03
S11306F0E40BF50B661F771F881F991F1A9469F77F
S113070060957095809590959B01AC01BD01CF01DA
S11307100895DC012D923D924D925D926D927D92F1
S11307208D929D92AD92BD92CD92DD92ED92FD920D
S11307300D931D93CD93DD93FF91EF918DB78D9321
S11307408EB78D938FB78D93ED93FD93882799275B
S11307500994DC01CB0181309105811D2D903D90E0
S11307604D905D906D907D908D909D90AD90BD90DD
S1130770CD90DD90ED90FD900D911D91CD91DD9189
S1130780ED91FD910D90F894FEBF0FBEEDBFED917C
S10B0790FD910994F894FFCFD8
S10707983601A3017E
S9030000FC
